{
  "contractName": "DogsUpdated",
  "abi": [
    {
      "inputs": [],
      "stateMutability": "nonpayable",
      "type": "constructor"
    },
    {
      "inputs": [],
      "name": "initialised",
      "outputs": [
        {
          "internalType": "bool",
          "name": "",
          "type": "bool"
        }
      ],
      "stateMutability": "view",
      "type": "function",
      "constant": true
    },
    {
      "inputs": [],
      "name": "owner",
      "outputs": [
        {
          "internalType": "address",
          "name": "",
          "type": "address"
        }
      ],
      "stateMutability": "view",
      "type": "function",
      "constant": true
    },
    {
      "inputs": [
        {
          "internalType": "address",
          "name": "_owner",
          "type": "address"
        }
      ],
      "name": "initialise",
      "outputs": [],
      "stateMutability": "nonpayable",
      "type": "function"
    },
    {
      "inputs": [],
      "name": "getNumberOfDogs",
      "outputs": [
        {
          "internalType": "uint256",
          "name": "",
          "type": "uint256"
        }
      ],
      "stateMutability": "view",
      "type": "function",
      "constant": true
    },
    {
      "inputs": [
        {
          "internalType": "uint256",
          "name": "numberOf",
          "type": "uint256"
        }
      ],
      "name": "setNumberOfDogs",
      "outputs": [],
      "stateMutability": "nonpayable",
      "type": "function"
    }
  ],
  "bytecode": "0x608060405234801561001057600080fd5b506100203361002560201b60201c565b61009e565b600560149054906101000a900460ff161561003f57600080fd5b80600560006101000a81548173ffffffffffffffffffffffffffffffffffffffff021916908373ffffffffffffffffffffffffffffffffffffffff1602179055506001600560146101000a81548160ff02191690831515021790555050565b610453806100ad6000396000f3fe608060405234801561001057600080fd5b50600436106100575760003560e01c806307003bb41461005c57806314861b221461007a5780631680a5ed146100965780638da5cb5b146100b45780639d6a890f146100d2575b600080fd5b6100646100ee565b604051610071919061033d565b60405180910390f35b610094600480360381019061008f9190610294565b610101565b005b61009e61017f565b6040516100ab9190610358565b60405180910390f35b6100bc6101a2565b6040516100c99190610322565b60405180910390f35b6100ec60048036038101906100e7919061026b565b6101c8565b005b600560149054906101000a900460ff1681565b600560009054906101000a900473ffffffffffffffffffffffffffffffffffffffff1673ffffffffffffffffffffffffffffffffffffffff163373ffffffffffffffffffffffffffffffffffffffff161461015b57600080fd5b80600060405161016a9061030d565b90815260200160405180910390208190555050565b60008060405161018e9061030d565b908152602001604051809103902054905090565b600560009054906101000a900473ffffffffffffffffffffffffffffffffffffffff1681565b600560149054906101000a900460ff16156101e257600080fd5b80600560006101000a81548173ffffffffffffffffffffffffffffffffffffffff021916908373ffffffffffffffffffffffffffffffffffffffff1602179055506001600560146101000a81548160ff02191690831515021790555050565b600081359050610250816103ef565b92915050565b60008135905061026581610406565b92915050565b60006020828403121561027d57600080fd5b600061028b84828501610241565b91505092915050565b6000602082840312156102a657600080fd5b60006102b484828501610256565b91505092915050565b6102c68161037e565b82525050565b6102d581610390565b82525050565b60006102e8600483610373565b91506102f3826103c6565b600482019050919050565b610307816103bc565b82525050565b6000610318826102db565b9150819050919050565b600060208201905061033760008301846102bd565b92915050565b600060208201905061035260008301846102cc565b92915050565b600060208201905061036d60008301846102fe565b92915050565b600081905092915050565b60006103898261039c565b9050919050565b60008115159050919050565b600073ffffffffffffffffffffffffffffffffffffffff82169050919050565b6000819050919050565b7f446f677300000000000000000000000000000000000000000000000000000000600082015250565b6103f88161037e565b811461040357600080fd5b50565b61040f816103bc565b811461041a57600080fd5b5056fea2646970667358221220bf2f060aa3f335789d85dbf9725f83ecac1429e25159584a0c8e43aecacb720864736f6c63430008030033",
  "immutableReferences": {},
  "source": "pragma solidity ^0.8.3;\n\nimport \"../contracts/storage.sol\";\n\ncontract DogsUpdated is Storage {\n\n    modifier onlyOwner{\n        require(msg.sender == owner);\n        _;\n    }\n\n    constructor() public {\n       initialise(msg.sender);\n    }\n\n    function initialise(address _owner) public {\n        require(!initialised);\n        owner = _owner;\n        initialised = true;\n    }\n    \n    function getNumberOfDogs()public view returns(uint256){\n        return _uintStorage[\"Dogs\"];\n    }\n\n    function setNumberOfDogs(uint numberOf)public onlyOwner{\n        _uintStorage[\"Dogs\"] = numberOf;\n    }\n\n\n\n}",
  "sourcePath": "/Users/OllieFrancis/Documents/Ethereum/ProxyContract/contracts/dogsUpdated.sol",
  "compiler": {
    "name": "solc",
    "version": "0.8.3+commit.8d00100c.Emscripten.clang"
  },
  "schemaVersion": "3.3.4",
  "updatedAt": "2021-04-08T09:42:05.243Z",
  "networkType": "ethereum",
  "devdoc": {
    "kind": "dev",
    "methods": {},
    "version": 1
  },
  "userdoc": {
    "kind": "user",
    "methods": {},
    "version": 1
  }
}