{
  "contractName": "Proxy",
  "abi": [
    {
      "inputs": [
        {
          "internalType": "address",
          "name": "_currentAddress",
          "type": "address"
        }
      ],
      "stateMutability": "nonpayable",
      "type": "constructor"
    },
    {
      "stateMutability": "payable",
      "type": "fallback",
      "payable": true
    },
    {
      "inputs": [],
      "name": "currentAddress",
      "outputs": [
        {
          "internalType": "address",
          "name": "",
          "type": "address"
        }
      ],
      "stateMutability": "view",
      "type": "function",
      "constant": true
    },
    {
      "inputs": [],
      "name": "initialised",
      "outputs": [
        {
          "internalType": "bool",
          "name": "",
          "type": "bool"
        }
      ],
      "stateMutability": "view",
      "type": "function",
      "constant": true
    },
    {
      "inputs": [],
      "name": "owner",
      "outputs": [
        {
          "internalType": "address",
          "name": "",
          "type": "address"
        }
      ],
      "stateMutability": "view",
      "type": "function",
      "constant": true
    },
    {
      "inputs": [
        {
          "internalType": "address",
          "name": "newAddress",
          "type": "address"
        }
      ],
      "name": "upgrade",
      "outputs": [],
      "stateMutability": "nonpayable",
      "type": "function"
    }
  ],
  "bytecode": "0x608060405234801561001057600080fd5b506040516104af3803806104af8339818101604052810190610032919061008e565b80600660006101000a81548173ffffffffffffffffffffffffffffffffffffffff021916908373ffffffffffffffffffffffffffffffffffffffff16021790555050610100565b600081519050610088816100e9565b92915050565b6000602082840312156100a057600080fd5b60006100ae84828501610079565b91505092915050565b60006100c2826100c9565b9050919050565b600073ffffffffffffffffffffffffffffffffffffffff82169050919050565b6100f2816100b7565b81146100fd57600080fd5b50565b6103a08061010f6000396000f3fe6080604052600436106100435760003560e01c806307003bb4146101365780630900f0101461016157806381bf47181461018a5780638da5cb5b146101b557610044565b5b6000600660009054906101000a900473ffffffffffffffffffffffffffffffffffffffff169050600073ffffffffffffffffffffffffffffffffffffffff16600660009054906101000a900473ffffffffffffffffffffffffffffffffffffffff1673ffffffffffffffffffffffffffffffffffffffff1614156100c757600080fd5b600080368080601f016020809104026020016040519081016040528093929190818152602001838380828437600081840152601f19601f8201169050808301925050505050505090503660008037600080366000855af43d6000803e8060008114610131573d6000f35b3d6000fd5b34801561014257600080fd5b5061014b6101e0565b60405161015891906102fa565b60405180910390f35b34801561016d57600080fd5b5061018860048036038101906101839190610298565b6101f3565b005b34801561019657600080fd5b5061019f610237565b6040516101ac91906102df565b60405180910390f35b3480156101c157600080fd5b506101ca61025d565b6040516101d791906102df565b60405180910390f35b600560149054906101000a900460ff1681565b80600660006101000a81548173ffffffffffffffffffffffffffffffffffffffff021916908373ffffffffffffffffffffffffffffffffffffffff16021790555050565b600660009054906101000a900473ffffffffffffffffffffffffffffffffffffffff1681565b600560009054906101000a900473ffffffffffffffffffffffffffffffffffffffff1681565b60008135905061029281610353565b92915050565b6000602082840312156102aa57600080fd5b60006102b884828501610283565b91505092915050565b6102ca81610315565b82525050565b6102d981610327565b82525050565b60006020820190506102f460008301846102c1565b92915050565b600060208201905061030f60008301846102d0565b92915050565b600061032082610333565b9050919050565b60008115159050919050565b600073ffffffffffffffffffffffffffffffffffffffff82169050919050565b61035c81610315565b811461036757600080fd5b5056fea26469706673582212200d2df3fa43174118b797064b6bd86288af045f56e63f73213018664b63f859b364736f6c63430008030033",
  "immutableReferences": {},
  "source": "pragma solidity ^0.8.3;\n\nimport \"../contracts/storage.sol\";\n\ncontract Proxy is Storage{\n\n    address public currentAddress;\n\n    constructor (address _currentAddress) {\n        currentAddress = _currentAddress;\n    }\n\n    function upgrade(address newAddress) public {\n        currentAddress = newAddress;\n    }\n\n    //fallback function\n    fallback () payable external {\n        address implementation = currentAddress;\n        require(currentAddress != address(0));\n        bytes memory data = msg.data;\n\n        assembly {\n            calldatacopy(0, 0, calldatasize())\n            let result := delegatecall(gas(), implementation, 0, calldatasize(), 0, 0)\n            returndatacopy(0, 0, returndatasize())\n            switch result\n            case 0 { revert(0, returndatasize()) }\n            default { return(0, returndatasize()) }\n        }\n    }\n}",
  "sourcePath": "/Users/OllieFrancis/Documents/Ethereum/ProxyContract/contracts/proxy.sol",
  "compiler": {
    "name": "solc",
    "version": "0.8.3+commit.8d00100c.Emscripten.clang"
  },
  "schemaVersion": "3.3.4",
  "updatedAt": "2021-04-08T09:42:05.244Z",
  "networkType": "ethereum",
  "devdoc": {
    "kind": "dev",
    "methods": {},
    "version": 1
  },
  "userdoc": {
    "kind": "user",
    "methods": {},
    "version": 1
  }
}